:100000000C94B4000C94DC000C94DC000C94DC0028
:100010000C94DC000C94DC000C94DC000C94DC00F0
:100020000C94DC000C94DC000C94DC000C94DC00E0
:100030000C94DC000C94DC000C94DC000C94DC00D0
:100040000C9485080C94DC000C9453080C942D0837
:100050000C94DC000C94DC000C94DC000C94DC00B0
:100060000C94DC000C94DC003D3D3D3D3D3D3D3DB0
:100070003D3D3D00566965746475696E6F20546539
:100080007374207769726520646F6E652C20616CD3
:100090006C2070696E7320617265204F4B21005691
:1000A0006965746475696E6F20546573742077692F
:1000B000726520646F6E652C20616C6C2070696EB7
:1000C0007320617265204F4B210000000000240066
:1000D00027002A0000000000250028002B00000057
:1000E000000023002600290004040404040404047E
:1000F00002020202020203030303030301020408D3
:100100001020408001020408102001020408102081
:1001100000000008000201000003040700000000C6
:1001200000000000417574686F723A204D722E4EC7
:10013000676F63202D20303933382030323220353C
:1001400030300057656C636F6D6520746F205669A1
:1001500065746475696E6F2C2074657374206265B4
:1001600067696E210000EB0811241FBECFEFD8E0B5
:10017000DEBFCDBF23E0A6E2B2E001C01D92A339ED
:10018000B207E1F712E0A0E0B1E0E2EBF9E102C072
:1001900005900D92A632B107D9F710E0C4EBD0E07C
:1001A00004C02197FE010E94DF0AC33BD107C9F7B3
:1001B0000E9442090C94D70C0C940000AF92BF929D
:1001C000CF92DF92EF92FF920F931F93CF93DF9323
:1001D0006C017B018B01040F151FEB015E01AE1852
:1001E000BF08C017D10759F06991D601ED91FC9174
:1001F0000190F081E02DC6010995892B79F7C501A1
:10020000DF91CF911F910F91FF90EF90DF90CF90F2
:10021000BF90AF900895FC01448155816081718148
:100220008BE492E00C94DE00FC01538D448D252F6D
:1002300030E0842F90E0821B930B541710F0CF9680
:10024000089501970895FC01918D828D981761F0B2
:10025000A28DAE0FBF2FB11D5D968C91928D9F5FC9
:100260009F73928F90E008958FEF9FEF0895FC01A8
:10027000918D828D981731F0828DE80FF11D858D5B
:1002800090E008958FEF9FEF0895FC01918D228DEE
:10029000892F90E0805C9F4F821B91098F73992773
:1002A00008958BE492E00E94450121E0892B09F436
:1002B00020E0822F089580E090E0892B29F00E94B1
:1002C000510181110C9400000895FC01A48DA80F28
:1002D000B92FB11DA35ABF4F2C91848D90E0019688
:1002E0008F739927848FA689B7892C93A089B189A8
:1002F0008C91837080648C93938D848D981306C049
:100300000288F389E02D80818F7D80830895EF92AC
:10031000FF920F931F93CF93DF93EC0181E0888FBF
:100320009B8D8C8D98131AC0E889F989808185FF8F
:1003300015C09FB7F894EE89FF896083E889F98931
:1003400080818370806480839FBF81E090E0DF9133
:10035000CF911F910F91FF90EF900895F62E0B8D86
:1003600010E00F5F1F4F0F731127E02E8C8D8E1141
:100370000CC00FB607FCFACFE889F989808185FFA8
:10038000F5CFCE010E946501F1CFEB8DEC0FFD2F73
:10039000F11DE35AFF4FF0829FB7F8940B8FEA8963
:1003A000FB8980818062CFCFCF93DF93EC01888D72
:1003B0008823B9F0AA89BB89E889F9898C9185FDE0
:1003C00003C0808186FD0DC00FB607FCF7CF8C916E
:1003D00085FFF2CF808185FFEDCFCE010E946501C0
:1003E000E9CFDF91CF910895833081F028F48130F7
:1003F00099F08230A9F008958730A9F08830C9F0CB
:100400008430B1F4809180008F7D03C080918000A2
:100410008F7780938000089584B58F7784BD089589
:1004200084B58F7DFBCF8091B0008F778093B00033
:1004300008958091B0008F7DF9CFCF93DF93282F5F
:1004400030E0F901E05FFE4F8491F901E450FF4F85
:10045000D491F901E851FF4FC491CC23A1F081114F
:100460000E94F401EC2FF0E0EE0FFF1FE252FF4F6D
:10047000A591B491EC91ED2381E090E009F480E046
:10048000DF91CF91089580E090E0FACF1F93CF9352
:10049000DF93282F30E0F901E05FFE4F8491F901EE
:1004A000E450FF4FD491F901E851FF4FC491CC23A0
:1004B000A9F0162F81110E94F401EC2FF0E0EE0F4D
:1004C000FF1FEC52FF4FA591B4918FB7F894EC91B8
:1004D000111108C0D095DE23DC938FBFDF91CF913F
:1004E0001F910895DE2BF8CFCF93DF9390E0FC01AE
:1004F000E450FF4F249188519F4FFC018491882341
:10050000C9F090E0880F991FFC01E653FF4FA591B9
:10051000B491FC01EC52FF4FC591D49161110DC013
:100520009FB7F8948C91209582238C9388812823FF
:1005300028839FBFDF91CF910895623051F49FB718
:10054000F8943C91822F809583238C93E8812E2B05
:10055000EFCF8FB7F894EC912E2B2C938FBFEACF6F
:100560003FB7F8948091470290914802A0914902C8
:10057000B0914A0226B5A89B05C02F3F19F00196FD
:10058000A11DB11D3FBFBA2FA92F982F8827BC01ED
:10059000CD01620F711D811D911D42E0660F771F15
:1005A000881F991F4A95D1F708950895CF93DF9337
:1005B000EC011A821B821C821D828E8D8823A1F081
:1005C000EC89FD89309711F0CE010995EE89FF89FC
:1005D000309711F0CE010995E88DF98D309721F013
:1005E000CE01DF91CF910994DF91CF9108950895C5
:1005F000CF92DF92EF92FF920F931F93CF93DF93EF
:100600008C01F801C281D38190818181209709F406
:100610005BC0F80180819181009711F00E94F8027F
:100620000E94B0026B017C014E815F8168857985F3
:100630008A819B81AC81BD81840F951FA61FB71F46
:10064000C816D906EA06FB0690F04E815F816885E0
:10065000798584179507A607B707D8F44E815F817F
:1006600068857985C416D506E606F70690F04E81B2
:100670005F8168857985C416D506E606F706A8F475
:100680004E815F816885798584179507A607B7072E
:1006900060F0CA86DB86EC86FD86EE85FF85CE019E
:1006A0000995CE82DF82E886F9860888D989C02D2F
:1006B000209709F0AECFDF91CF911F910F91FF905E
:1006C000EF90DF90CF900895092F182F0115110595
:1006D00009F097CFF0CFDC011296ED91FC911397C2
:1006E0003097C1F0E617F70741F420893189139656
:1006F0003C932E9312970895FC018089918900976D
:1007000049F086179707C1F7DB0150968D919C91B0
:10071000918B808B08950F931F93CF93DF93EC0100
:100720008E8D811102C081E08E8F1A821B821C8205
:100730001D821B8E1A8E0A891B89BE01C8010E9468
:100740006B03D8011296ED91FC9113973097D1F479
:100750001396DC93CE9312970E94B0020A811B81FC
:100760002C813D81601B710B820B930B6E837F8309
:1007700088879987198A188ADF91CF911F910F91E5
:100780000895FC01808991890097D9F7D18BC08B9E
:10079000E3CFFC01778B668B0C948B03FC01758B8C
:1007A000648B0C948B03FC01168EBC0182899389A7
:1007B0000C946B03DC015A96ED91FC91309709F093
:1007C00009948BE492E00E944501892BA1F08BE40F
:1007D00092E00E94230180914102882361F0809180
:1007E0005003811108C080912C02811104C082E362
:1007F00093E00C948B030895FC0101900020E9F72D
:100800003197AF01481B590BBC018BE492E00C946B
:10081000DE0088E291E00C94FC030F931F93CF93CA
:10082000DF938C01D0E0C0E0F801EC0FFD1F649174
:10083000662341F08BE492E00E948701892B11F03E
:100840002196F2CF0E9409048C0F9D1FDF91CF915A
:100850001F910F910895CF93DF930E94FC03EC0149
:100860000E9409048C0F9D1FDF91CF910895CF93B3
:10087000DF93EC018A8D9B8D892BD9F561E08DE0AA
:100880000E94740280912C0281112EC0609100019F
:1008900081E068278DE00E944602809100019091DE
:1008A0000101019721F48BE291E00E942B0481E089
:1008B00090E02091000130910101232B11F090E094
:1008C00080E0909301018093000180EA96E8A1E026
:1008D000B0E08A839B83AC83BD8389E794E09B8FE0
:1008E0008A8FDF91CF91089584E790E00E940D04F4
:1008F000D4CF1B8E1A8EC6CFBF92CF92DF92EF92CB
:10090000FF920F931F93CF93DF93EC01EA8DFB8D42
:10091000309709F009948AE491E00E942B0481E069
:1009200080932B0281E593E00E94D3038FE2E82EAF
:1009300082E0F82E02E010E0DD24D39480910201E1
:10094000909103018017910754F062E0802F0E947C
:100950007402F701D1927F010F5F1F4FEFCF80EA42
:1009600096E8A1E0B0E08A839B83AC83BD8385ECED
:1009700094E09B8F8A8FDF91CF911F910F91FF9011
:10098000EF90DF90CF90BF9008951B8E1A8E10923B
:10099000410280914102811151C01A821B821C8246
:1009A0001D8284ED94E0E5CF1B8E1A8E10922A02F0
:1009B00082E090E09093290280932802EE24E39451
:1009C0000091280210912902809102019091030167
:1009D000801791072CF1B0902B02FF24F394B110F3
:1009E000F12CC801835D9D4F6C01FC0180818F1546
:1009F00051F0802F0E941D02E0924102B8161906A4
:100A000049F4E0922A020F5F1F4F109329020093CE
:100A10002802D6CFF8161906B1F7F601F082F3CF07
:100A200080912A0281111092410280918E038111DE
:100A3000B0CF80E793E00E948B03ABCF8FE990E0CB
:100A40000E940D0482E393E00E94D30381E080932F
:100A50002C0281E593E0DF91CF911F910F91FF90E0
:100A6000EF90DF90CF90BF900C948B030F931F9368
:100A7000CF93DF93EC0188819981009759F02A8107
:100A80003B812617370730F081E0DF91CF911F912E
:100A90000F9108958B016F5F7F4F0E940A0C0097A2
:100AA00059F0998388831B830A832C813D81232BF2
:100AB00059F7FC011082E8CF80E0E7CFCF93DF93B6
:100AC000EC0188819981009711F00E94810B1982B5
:100AD00018821D821C821B821A82DF91CF91089599
:100AE000EF92FF920F931F93CF93DF93EC017B0163
:100AF000198218821B821A821D821C82FB010190BE
:100B00000020E9F731978F01061B170BB8010E94EF
:100B10003605811109C0CE01DF91CF911F910F9150
:100B2000FF90EF900C945E051D830C83B7018881C4
:100B30009981DF91CF911F910F91FF90EF900C94CD
:100B4000D00CCF92DF92EF92FF920F931F93CF932F
:100B5000DF93CDB7DEB762970FB6F894DEBF0FBE56
:100B6000CDBF8C01CB01F801118210821382128259
:100B7000158214824AE09E012F5F3F4F6901B9013F
:100B80000E94510AF60101900020E9F731977F0198
:100B9000EC18FD08B701C8010E943605811112C08A
:100BA000C8010E945E0562960FB6F894DEBF0FBEC4
:100BB000CDBFDF91CF911F910F91FF90EF90DF900C
:100BC000CF900895F801F582E482B6018081918189
:100BD0000E94D00CE8CFEF92FF920F931F93CF9318
:100BE000DF93EC01FB01E080F180E114F10411F1ED
:100BF0000481158101151105A9F08C819D81080FD3
:100C0000191FB801CE010E943605882399F028816A
:100C100039818C819D81B701820F931F0E94D00C76
:100C20001D830C83CE01DF91CF911F910F91FF9017
:100C3000EF900895CE010E945E05F4CFFC01808103
:100C40009181009711F00C94810B08950C94810B05
:100C50000C94810B8F929F92AF92BF92CF92DF92B2
:100C6000EF92FF92CF93DF93CDB7DEB7A7970FB682
:100C7000F894DEBF0FBECDBFBC01209102013091C0
:100C80000301233331058CF1C6970CF43FC0665342
:100C90007109CE0182960E94A1056EE571E0CE0138
:100CA00001960E947005BE016E5D7F4FCE010196D8
:100CB0000E94EB050E940B01CE0101960E941E06C8
:100CC000CE0182960E941E06A7960FB6F894DEBF4C
:100CD0000FBECDBFDF91CF91FF90EF90DF90CF900F
:100CE000BF90AF909F908F9008952731310529F4E0
:100CF000429734F062517109CCCF2233310534F47C
:100D00006E3071051CF06E507109C3CF6B01770F07
:100D1000EE08FF08F7FE2CC06DE28BE492E00E9423
:100D2000870122273327A9012C193D094E095F09A4
:100D300019A2CE0181967C019AE0892E912CA12CDA
:100D4000B12CCA01B901A50194010E94BD0A605DE0
:100D5000F70162937F01211531054105510589F79E
:100D6000E114F10409F4B0CFC7010E94FC03ACCF39
:100D7000A701960119A2CE0181967C018AE0882EF6
:100D8000912CA12CB12CCA01B901A50194010E949A
:100D9000BD0A605DF70162937F01211531054105B0
:100DA000510589F7DDCF0F931F93CF93DF93EC01AC
:100DB000EA8DFB8D309709F009941092270210926A
:100DC000260288E690E00E940D0482E090E0909375
:100DD000270280932602809126029091270220917B
:100DE0000201309103012817390794F1FC01E35DFA
:100DF000FD4F008110912B0221E0111120E002171C
:100E000009F10E941D0201131DC08DE691E00E94B0
:100E1000FC0380912B02811136C080E691E00E9494
:100E2000FC0380912602909127020E942A060E94CC
:100E300009041A821B821C821D8280E297E012C084
:100E40001B8E1A8E80912602909127020196BFCFA9
:100E500080E492E4AFE0B0E08A839B83AC83BD83FF
:100E600089E397E09B8F8A8FDF91CF911F910F913C
:100E700008951B8E1A8E80E793E0DF91CF911F912A
:100E80000F910C94D30386E691E0C9CFDF92EF92E5
:100E9000FF920F931F93CF93DF93EC01EA8DFB8DAD
:100EA000309709F0099402E010E0809102019091DE
:100EB00003018017910794F000FD07C062E0802FC6
:100EC0000E9474020F5F1F4FF0CF61E0802F0E94DD
:100ED000740260E0802F0E944602F4CF80E197E226
:100EE000A0E0B0E08A839B83AC83BD8382E897E077
:100EF0009B8F8A8FDF91CF911F910F91FF90EF9081
:100F0000DF9008951B8E1A8E02E010E0FF24F39408
:100F1000809102019091030180179107CCF000FDB0
:100F200014C0802F0E941D02892B79F482E791E082
:100F30000E94FC03C8010E942A068EE791E00E94ED
:100F4000FC030E940904F09241020F5F1F4FE0CFA3
:100F500080E197E2A0E0B0E08A839B83AC83BD830D
:100F600083EB97E0C5CF1B8E1A8E02E010E08091D4
:100F70000201909103018017910794F000FF07C0D0
:100F800062E0802F0E9474020F5F1F4FF0CF61E07C
:100F9000802F0E94740260E0802F0E944602F4CFEE
:100FA00080E197E2A0E0B0E08A839B83AC83BD83BD
:100FB0008BED97E09DCF1B8E1A8EC2E0D0E011E042
:100FC000E0900201F0900301EC16FD0694F40FE2AC
:100FD00012E0C2E0D0E0DD24D394EC16FD060CF163
:100FE00060E08C2F0E947402F801D1928F0121964B
:100FF000F4CF8C2FC0FF13C00E941D02892B79F4FF
:1010000082E791E00E94FC03CE010E942A068EE74F
:1010100091E00E94FC030E94090410934102219672
:10102000CFCF80914102811113C086E891E00E94E8
:101030002B0481E593E00E948B0384EF92E0DF9123
:10104000CF911F910F91FF90EF90DF900C94D303FD
:1010500086EB91E00E942B04F0CF1F920F920FB607
:101060000F9211242F933F934F935F936F937F932E
:101070008F939F93AF93BF93EF93FF938BE492E093
:101080000E946501FF91EF91BF91AF919F918F9168
:101090007F916F915F914F913F912F910F900FBE74
:1010A0000F901F9018951F920F920FB60F92112458
:1010B0002F938F939F93EF93FF93E0915B02F091B7
:1010C0005C028081E0916102F091620282FD1BC0AE
:1010D0009081809164028F5F8F73209165028217E7
:1010E00041F0E0916402F0E0E55BFD4F958F809365
:1010F0006402FF91EF919F918F912F910F900FBEFE
:101100000F901F9018958081F4CF1F920F920FB609
:101110000F9211242F933F938F939F93AF93BF937D
:101120008091430290914402A0914502B091460201
:101130003091420223E0230F2D3758F50196A11D6F
:10114000B11D209342028093430290934402A093E6
:101150004502B09346028091470290914802A091C7
:101160004902B0914A020196A11DB11D8093470228
:1011700090934802A0934902B0934A02BF91AF9165
:101180009F918F913F912F910F900FBE0F901F90C5
:10119000189526E8230F0296A11DB11DD2CFFC01A0
:1011A000128213821482158286ED92E097878687D9
:1011B0001682178210861186118A108A8EE091E0BD
:1011C0009183808388EE92E0938B828B718F608F06
:1011D000CF010C948B03EBE4F2E01382128288EED1
:1011E00093E0A0E0B0E084839583A683B7838AE18F
:1011F00091E09183808385EC90E09587848784ECEF
:1012000090E09787868780EC90E0918B808B81ECD3
:1012100090E0938B828B82EC90E0958B848B86ECB4
:1012200090E0978B868B118E128E138E148EA0EF0A
:10123000B2E011961C921E92ECEEF2E0B183A08314
:10124000F093E902E093E80263ED76E080E793E053
:101250000E94CF0867E374E081E593E00E94CF0825
:101260006CE774E082E393E00E94CF086AED73E0DC
:1012700083E193E00E94CF0866E477E084EF92E098
:101280000C94CF08CF93DF93CDB7DEB72C970FB672
:10129000F894DEBF0FBECDBF789484B5826084BD64
:1012A00084B5816084BD85B5826085BD85B581606A
:1012B00085BD80916E00816080936E0010928100E8
:1012C00080918100826080938100809181008160A3
:1012D0008093810080918000816080938000809164
:1012E000B10084608093B1008091B00081608093F0
:1012F000B00080917A00846080937A0080917A00B7
:10130000826080937A0080917A00816080937A0075
:1013100080917A00806880937A001092C100E091F9
:101320005B02F0915C0282E08083E0915702F091D1
:1013300058021082E0915902F0915A028FEC80839A
:1013400010926302E0915F02F091600286E0808378
:10135000E0915D02F0915E02808180618083E09186
:101360005D02F0915E02808188608083E0915D0281
:10137000F0915E02808180688083E0915D02F0914F
:101380005E0280818F7D808388EE91E08C5E91404B
:1013900031F487E190E0909303018093020164E1CE
:1013A00070E0CE0101960E94A10562EF71E0CE01CE
:1013B00007960E947005BE016F5F7F4FCE010796B2
:1013C0000E94EB058C01FC01E480F580FFE0EF0E4C
:1013D000F11CB7010E943605882309F45EC0F801AC
:1013E00020813181848195816DEF71E0820F931F9F
:1013F0000E94D00CF801F582E482C8010E940B0122
:101400000E940904CE0107960E941E06CE01019695
:101410000E941E0683E491E00E940D0468EE71E0D4
:10142000CE0101960E9470056DE072E0CE01079634
:101430000E947005BE016F5F7F4FCE0107960E942C
:10144000EB050E940B010E940904CE0107960E9441
:101450001E06CE0101960E941E0684E291E00E94C3
:101460000D0482E393E00E94D30380E793E00E949F
:10147000D30381E593E00E94D30300E010E088EEFF
:1014800092E00E94F80201151105C9F30E94510172
:101490008823A9F30E940000F2CFC8010E945E05D4
:1014A000ACCFBB274A3031F4992322F4BDE29095AA
:1014B00081959F4F0C945D0ABB27FB015527AA27F6
:1014C000880F991FAA1FA41710F0A41B83955051D1
:1014D000B9F7A05DAA3308F0A95DA193009779F749
:1014E000B111B1931192CB010C94760ADC01FC018D
:1014F000672F71917723E1F7329704C07C916D9348
:1015000070836291AE17BF07C8F308952F923F9280
:101510004F925F926F927F928F929F92AF92BF9203
:10152000CF92DF92EF92FF920F931F93CF93DF93AF
:10153000CDB7DEB7CA1BDB0B0FB6F894DEBF0FBE0C
:10154000CDBF09942A88398848885F846E847D8459
:101550008C849B84AA84B984C884DF80EE80FD805B
:101560000C811B81AA81B981CE0FD11D0FB6F894D1
:10157000DEBF0FBECDBFED010895A1E21A2EAA1B5A
:10158000BB1BFD010DC0AA1FBB1FEE1FFF1FA21733
:10159000B307E407F50720F0A21BB30BE40BF50B30
:1015A000661F771F881F991F1A9469F760957095B9
:1015B000809590959B01AC01BD01CF010895EE0F80
:1015C000FF1F0590F491E02D09940F931F93CF9383
:1015D000DF938230910510F482E090E0E091910376
:1015E000F091920330E020E0B0E0A0E0309799F471
:1015F0002115310509F44AC0281B390B2430310567
:10160000D8F58A819B816115710589F1FB0193836E
:101610008283FE0111C040815181028113814817EC
:101620005907E0F04817590799F4109761F012969E
:101630000C93129713961C933296CF01DF91CF91A2
:101640001F910F9108950093910310939203F4CF8B
:101650002115310551F04217530738F0A901DB017C
:101660009A01BD01DF01F801C1CFEF01F9CF9093DD
:10167000920380939103CDCFFE01E20FF31F81937C
:1016800091932250310939832883D7CF20918F033A
:1016900030919003232B41F42091060130910701F2
:1016A0003093900320938F03209104013091050122
:1016B0002115310541F42DB73EB7409108015091F5
:1016C0000901241B350BE0918F03F0919003E21781
:1016D000F307A0F42E1B3F0B2817390778F0AC0155
:1016E0004E5F5F4F2417350748F04E0F5F1F509332
:1016F000900340938F03819391939FCFF0E0E0E0BC
:101700009CCFCF93DF930097E9F0FC0132971382CF
:101710001282A0919103B0919203ED0130E020E09C
:101720001097A1F420813181820F931F20918F03A4
:10173000309190032817390709F061C0F0939003A6
:10174000E0938F03DF91CF910895EA01CE17DF0771
:10175000E8F54A815B819E0141155105B1F7E90128
:10176000FB83EA8349915991C40FD51FEC17FD07FC
:1017700061F4808191810296840F951FE90199831C
:101780008883828193819B838A83F0E0E0E01296D4
:101790008D919C9113970097B9F52D913C911197DC
:1017A000CD010296820F931F20918F0330919003F9
:1017B0002817390739F6309751F510929203109295
:1017C0009103B0939003A0938F03BCCFD383C283C4
:1017D00040815181840F951FC817D90761F44E5F6E
:1017E0005F4F88819981480F591F518340838A81B7
:1017F0009B81938382832115310509F0B0CFF0934B
:101800009203E09391039ECFFD01DC01C0CF1382D0
:101810001282D7CFB0E0A0E0E0E1FCE00C94880AAF
:101820008C01009751F4CB010E94E50A8C01C8019C
:10183000CDB7DEB7E0E10C94A40AFC01E60FF71F78
:101840009C0122503109E217F30708F49DC0D90129
:10185000CD91DC911197C617D70798F0C530D10507
:1018600030F3CE0104978617970708F3C61BD70BF2
:101870002297C193D1936D937C93CF010E94810BEA
:10188000D6CF5B01AC1ABD0A4C018C0E9D1EA091F7
:101890009103B0919203512C412CF12CE12C109723
:1018A00031F580918F03909190038815990509F087
:1018B0005CC04616570608F058C08091040190910C
:1018C0000501009741F48DB79EB7409108015091F2
:1018D0000901841B950BE817F90708F055C0F09330
:1018E0009003E0938F03F90171836083A0CF8D9102
:1018F0009C91119712966C90129713967C90139767
:10190000A815B90559F56C0142E0C40ED11CCA14E2
:10191000DB0420F1AC014A195B09DA011296159734
:1019200080F06282738251834083D9016D937C93EE
:10193000E114F10471F0D7011396FC93EE93129722
:1019400076CF22968C0F9D1FF90191838083F3013E
:10195000EFCFF0939203E093910369CF48165906B5
:1019600008F42C017D01D3019ACFCB010E94E50A36
:101970007C01009749F0AE01B8010E94C70CC80174
:101980000E94810B870153CF10E000E050CFFB0194
:10199000DC0102C001900D9241505040D8F70895EB
:1019A000FB01DC0101900D920020E1F70895F8940D
:0219B000FFCF67
:1019B2000100130000009303800000000000F70202
:1019C2002606CE03C903000000008701DE001401D1
:1019D200D4014501230137010D0A004873686F7075
:1019E2002074657374732041726475696E6F206C24
:1019F200616E2033204F4B212100546573742049BE
:101A02002F4F204C6F7720626567696E3A00410064
:101A12004C4F573A2000484947483A200050696ED7
:101A220020004D61792062652070696E200020657A
:101A320072726F722000436F6E67726174756C61AF
:101A420074696F6E2C20566965746475696E6F20B7
:101A5200697320776F726B696E6720766572792081
:101A6200676F6F642100536F6D652070696E206827
:101A720061732070726F706C656D20706C6561733C
:101A82006520636865636B20686172647761726563
:101A920020616761696E2100556E6F004D69637246
:101AA2006F0054686572652061726520002070695C
:101AB2006E206E65656420636865636B00566572AF
:101AC20073696F6E206669726D5761726520746505
:061AD20073743A200000CD
:00000001FF
